:100000000C9434000C9451000C9451000C947C0915
:100010000C94A5090C94CE090C9451000C94D808AA
:100020000C9401090C942A090C9451000C945D085D
:100030000C9486080C94AF080C94E2070C940B08FF
:100040000C9434080C9451000C9451000C94510001
:100050000C9453090C9451000C9451000C945100D1
:100060000C9451000C94510011241FBECFEFD8E026
:10007000DEBFCDBF13E0A0E0B1E0E0EBF7E102C0EE
:1000800005900D92A83EB107D9F726E0A8EEB3E09F
:1000900001C01D92A739B207E1F70E94EB0A0C9448
:1000A000D60B0C940000E2E7F4E083E0838322E0C7
:1000B000248346E154E056834583828783874DE25B
:1000C00054E055874487818B95E0928B44E454E05B
:1000D000548B438B808F96E0918F4BE554E0538F88
:1000E000428FEDE0F4E091E0918392839483258345
:1000F000978380870E94C1020C94F709CF93DF9306
:1001000082E794E00E94B80189E794E00E94B80178
:1001100080E894E00E94B80187E894E00E94B8016A
:10012000809174042091010130910201813009F421
:100130004AC08091000190917B04913009F454C031
:100140008230E8F1843BB8F52330310550F582E088
:1001500090E0909302018093010180E00E94030AE5
:100160009C01ADECBCEC0E94C70BEC01D695C79589
:10017000D695C795D695C7958C2F805B8093030144
:100180006AE580E197E20E94CB02209711F4C1E07A
:10019000D0E043E06CE370E0CE01DF91CF910C94AE
:1001A000560324363105C8F284E690E090930201AC
:1001B00080930101D2CF8AE580930001C5CF8AE008
:1001C00080930001C1CF80918204811119C0215018
:1001D0003109309302012093010180910001909137
:1001E0007B04913009F0ACCF90918904911104C047
:1001F000815080930001A4CF8F5F80930001A0CF36
:100200002F5F3F4F309302012093010192CF0C9456
:100210000C028F929F92AF92BF92CF92DF92EF9299
:10022000FF92CF93DF93009709F44CC0EC010E943A
:1002300011026B017C01CB86DC86ED86FE868F8504
:100240009889A989BA8946015701881A990AAA0A80
:10025000BB0A8B8A9C8AAD8ABE8A28853985A0E82C
:10026000BEE30E94C70B86169706A806B90660F47F
:100270001A86DF91CF91FF90EF90DF90CF90BF90E3
:10028000AF909F908F9008958C819D81AE81BF81AA
:100290000196A11DB11D8C839D83AE83BF8381E038
:1002A0008A87C501B40120E83EE340E050E00E94A7
:1002B0009F0B288339834A835B83CF86D88AE98A58
:1002C000FA8AD7CF85E192E0DF91CF91FF90EF904E
:1002D000DF90CF90BF90AF909F908F900C9430079D
:1002E000CF93DF93009709F440C061157105E9F1E0
:1002F000EC01CB010E9491058AE292E00E949105F7
:10030000688179818A819B814AE00E949B0581E313
:1003100092E00E9491056C817D818E819F814AE0EF
:100320000E949B0587E392E00E9491056B897C897E
:100330008D899E894AE00E949B058DE392E00E9490
:1003400091056B857C858D859E854AE00E949B0585
:1003500082E492E00E9491056F85788989899A8963
:100360004AE0DF91CF910C949B05DF91CF910895E6
:10037000DF92EF92FF920F931F93CF93DF9300973B
:10038000F9F0EC01EB80FC800D811E816F2D8E2D2C
:100390000E945704D82E81E0D816D1F0F8011082BF
:1003A000118212821382148215821682178290E0C3
:1003B00080E099838883DA82EB82FC821E830D833E
:1003C000DF91CF911F910F91FF90EF90DF900895F3
:1003D000C8010E940901F8014081518124813581C1
:1003E000429FC001439F900D529F900D1124E1CF79
:1003F0008091960490919704A0919804B0919904EB
:100400009F5FAF4FBF4F8093960490939704A09344
:100410009804B0939904089562E088EF91E00C94F9
:100420004B070F931F930E94F4064091960450913E
:10043000970460919804709199048A01082BCB016C
:10044000B8011F910F91089580917D0690917E06CD
:10045000A0917F06B09180060196A11DB11D8093E9
:100460007D0690937E06A0937F06B09380068091D0
:100470006B0690916C06019690936C0680936B06C8
:100480008FEF86BD809384008093B20040917D06FB
:1004900050917E0660917F0670918006809167067C
:1004A00090916806A0916906B0916A06E091640691
:1004B000481759076A077B0758F0EF5FE093640617
:1004C00010927D0610927E0610927F061092800692
:1004D000F0E0E65FFE4F808187BDE0916406F0E0CA
:1004E000E65FFE4F808190E09093890080938800C2
:1004F000E0916406EB5AF0E0E65FFE4F808188BD34
:10050000E0916406EB5AF0E0E65FFE4F808190E0F8
:1005100090938B0080938A00E0916406E655F0E0AA
:10052000E65FFE4F80818093B400E0916406E6555B
:10053000F0E0E65FFE4F80818093B3000895CF9393
:1005400065E081E00E945704C82F6091640670E066
:1005500090E080E04AE0C13051F00E949B056C2F92
:1005600070E090E080E04AE0CF910C949B050E94FF
:100570009B054AE061E070E080E090E0CF910C9450
:100580009B0565E084E292E00E944B076AE08FE9F8
:1005900092E00C944B07CF93C62F2FEFAC01249F12
:1005A000C001259F900D11249C0150E040E0609116
:1005B0007706709178068091790690917A060E946C
:1005C0009F0B3093740620937306C53608F0C4E67B
:1005D0006C2F70E0629FC001639F900D729F900D21
:1005E00011249C013695279536952795ABE7B4E104
:1005F0000E94C70B9695879590937C0680937B0607
:10060000CF910895CF93DF93FC019B01442301F127
:1006100080E49CE9BF010E948B0BEB0188E691E02E
:10062000B9010E948B0B76956795CE010E948B0BCA
:10063000ADE6B6E0E1E9F6E030E020E080E0CD9321
:10064000DD93219331938F5F260F371F4813F7CF28
:1006500080917506811124C041E050E060E074E2B1
:1006600084EF90E00E9423076093770670937806EA
:100670008093790690937A0620E43CE940E050E0CC
:100680000E949F0B2093810630938206409383063D
:10069000509384060E94F606BC0183E00E94FE0689
:1006A00081E080937506DF91CF910895EF92FF92DC
:1006B0000F931F93CF93DF939C017B018FEF829F5A
:1006C000E001839FD00D1124442339F1E0E4FCE9DB
:1006D000CF01BE010E948B0B8B0184EB90E0B70130
:1006E0000E948B0BCB01829FB001839F700D929F64
:1006F000700D1124CF010E948B0BADE6B6E0E1E94D
:10070000F6E030E020E080E00D931D9321933193DB
:100710008F5F260F371F4813F7CF80917506811121
:1007200029C041E050E060E074E284EF90E00E9474
:1007300023076093770670937806809379069093E9
:100740007A0620E43CE940E050E00E949F0B2093B1
:1007500081063093820640938306509384060E945C
:10076000F6068C01BC0183E00E94FE06B80187E01A
:100770000E94FE0681E0809375069E01AFEFB0E017
:100780000E94C70B9B01AC016091770670917806BF
:100790008091790690917A060E949F0B2F5F3F4FC0
:1007A0004F4F5F4F2093670630936806409369066A
:1007B00050936A06DF91CF911F910F91FF90EF90B8
:1007C0000895CF9365E082E00E945704C82F8130DE
:1007D00091F08AE1809364064AE06AE170E080E08B
:1007E00090E00E949B056C2F70E090E080E04AE072
:1007F000CF910C949B058AE9809364064AE06AE9EC
:1008000070E080E090E00E949B054AE061E070E0CB
:1008100080E090E0CF910C949B05823061F08330B2
:1008200041F0813021F089E492E00C94300764B902
:1008300008956AB9089567B90895823011F1833037
:1008400099F0813021F089E592E00C94300781E045
:1008500090E001C0880F6A95EAF795B1411124C074
:100860008095892385B9089581E090E001C0880FC3
:100870006A95EAF79BB1411114C0809589238BB921
:10088000089581E090E001C0880F6A95EAF798B179
:10089000411104C08095892388B90895892B88B9AE
:1008A0000895892B8BB90895892B85B90895CF9325
:1008B000C62F8230E9F08330C9F08130A9F08AE692
:1008C00092E00E9430078FEF21E030E00C2E01C053
:1008D000220F0A94EAF7822390E002C0959587954B
:1008E000CA95E2F7CF91089583B1EECF89B1ECCFED
:1008F00086B1EACF8230A1F0833061F0813021F0FF
:1009000085EC92E00C943007683058F18AE792E069
:100910000C9430076830B8F08CEA92E00C94300701
:10092000673020F083E992E00C943007E62FF0E086
:10093000E456FB4F0C94C10BC104CB04C904C7049B
:10094000C504CD04C304E62FF0E0E755FB4F0C943B
:10095000C10BBF04E104DF04E904E704E504E30498
:10096000DD04E62FF0E0E954FB4F0C94C10BBF040B
:10097000D704D504D304D104CF04DB04D904189AD6
:100980000895309A0895369A0895349A0895339ABE
:100990000895329A0895319A0895359A08951D9AC6
:1009A00008951C9A08951B9A08951A9A0895199A01
:1009B00008951F9A08951E9A08954F9A08954A9A85
:1009C0000895499A08954E9A08954D9A08954C9A1B
:1009D00008954B9A0895A89508950FB6F894A89590
:1009E00080916000886180936000109260000FBE6B
:1009F00008958230F1F0843089F0813021F087ED64
:100A000092E00C94300788E19EE00FB6F894A89528
:100A1000809360000FBE90936000089588E198E293
:100A20000FB6F894A895809360000FBE9093600075
:100A3000089588E19FE00FB6F894A8958093600030
:100A40000FBE90936000089520910401309105013C
:100A500080910601909107012817390731F084E051
:100A600091E00E944F0A8093C6000895FC012191F5
:100A700080E09091C00095FFFCCF2093C6008F5F6F
:100A800021912111F6CF0895FC0120E09091C00042
:100A900095FFFCCF81918093C6002F5F2617B0F39E
:100AA0000895203CE2E13E074105510570F1211512
:100AB000E2EC3E07E1E04E07510561F1220F331FE2
:100AC000441F551F220F331F441F551F220F331F72
:100AD000441F551F220F331F441F551F0E949F0B99
:100AE000215080E88093C2008091C200866080938C
:100AF000C2008091C20088608093C2008091C100D2
:100B000088618093C1002093C40069E084E295E08D
:100B10000C944B0720E030E24CE150E00E949F0B28
:100B2000E0CF009711F00C94360584EF92E00E941C
:100B3000300780E00895CF92DF92EF92FF920F93FB
:100B40001F93CF93DF93CDB7DEB7A1970FB6F8947D
:100B5000DEBF0FBECDBF19A24230B8F1C42ED12CDA
:100B6000F12CE12C8E010F5D1F4F08C0E05DD80114
:100B7000EE938D01232B242B252B89F0A7019601C1
:100B80000E949F0BE62FB901CA01EA307CF3E95CB1
:100B9000D801EE938D01232B242B252B79F7CD0142
:100BA0000E9491058CE093E00E943605A1960FB655
:100BB000F894DEBF0FBECDBFDF91CF911F910F9193
:100BC000FF90EF90DF90CF9008958EE093E00E9429
:100BD0003007ECCF009711F00C94440586E293E0C7
:100BE0000C943007009719F061E00C94440586E2FC
:100BF00093E00C943007813009F456C0E0F1823064
:100C000011F581EA8093B00081E08093B1001092E9
:100C1000700017BA2830310509F492C008F483C077
:100C2000211581E0380709F49BC0211594E03907AC
:100C300009F4A6C020343105D1F48091B10084605C
:100C40008093B10008952830310509F474C008F488
:100C500059C0211591E0390709F47EC0211594E0AF
:100C6000390709F488C02034310509F46FC08EE3D8
:100C700093E00C94300791EA94BD91E095BD1092F9
:100C80006E0015BA2830310509F455C0D8F1211588
:100C900091E0390709F460C0211594E0390719F78C
:100CA00085B5856085BD089591EA90938000809315
:100CB000810010926F0016BA2830310509F482C005
:100CC00098F0211581E0380709F488C0211594E0D7
:100CD000390709F47DC02034310549F6809181003F
:100CE00083608093810008952115310509F465C062
:100CF0002130310509F0BBCF809181008160809364
:100D0000810008952115310589F12130310509F05F
:100D1000AECF8823D9F1813079F38091B100816021
:100D20008093B10008952115310509F43FC02130A9
:100D3000310599F39CCF882389F1813009F442C0B1
:100D40008091B10082608093B1000895882311F1F1
:100D5000813009F072CFC2CF882321F18130F1F1C7
:100D60008091B10086608093B1000895811123C005
:100D700085B585BD0895882309F492CF813041F16E
:100D80008091B10087608093B100089585B581603E
:100D900085BD089585B5836085BD089585B582605C
:100DA00085BD089585B5846085BD08958091B100A5
:100DB0008093B10008958130C9F7809181008093BC
:100DC0008100089580918100826080938100089560
:100DD00080918100856080938100089580918100D9
:100DE000846080938100089586B508958091840081
:100DF0009091850008958091B20008958330F1F0BC
:100E000050F0863071F08730B1F0843069F088E5B9
:100E100093E00C943007882361F08130C1F768BDFE
:100E200008956093B300089570938B0060938A00D7
:100E3000089567BD08956093B40008957093890084
:100E40006093880008959A0150E040E00E949F0B53
:100E5000CA01B901089590939B0480939A04089560
:100E60000E9491058CE093E00E949105EAE9F4E08C
:100E7000618180810E947A0481E080939C040895BE
:100E800080919C04811101C0089580E793E00C9447
:100E9000300778940895009711F06D3020F080EAC3
:100EA00093E00C943007E62FF0E0E75AF84F0C94EB
:100EB000C10BD207C707BC07B107A6079B0790075E
:100EC00085077A0770076B076607DD079093A00414
:100ED00080939F0408959093A2048093A1040895A1
:100EE0009093A4048093A3048091C10080648093B4
:100EF000C10008959093A6048093A504B89A8091A8
:100F0000700081608093700008959093A80480938E
:100F1000A704BA9A8091700084608093700008954D
:100F20009093AA048093A904B99A8091700082607A
:100F30008093700008959093AC048093AB04B09AB2
:100F400080916F00816080936F0008959093AE044C
:100F50008093AD04B29A80916F00846080936F009B
:100F600008959093B0048093AF04B19A80916F007C
:100F7000826080936F0008959093B2048093B104CF
:100F8000A89A80916E00816080936E00089590937E
:100F9000B4048093B304AA9A80916E008460809315
:100FA0006E0008959093B6048093B504A99A809139
:100FB0006E00826080936E00089590939E048093EB
:100FC0009D0408951F920F920FB60F9211242F9334
:100FD0003F934F935F936F937F938F939F93AF93C1
:100FE000BF93EF93FF93E091B504F091B60430976F
:100FF00009F00995FF91EF91BF91AF919F918F916A
:101000007F916F915F914F913F912F910F900FBE04
:101010000F901F9018951F920F920FB60F921124E8
:101020002F933F934F935F936F937F938F939F93F0
:10103000AF93BF93EF93FF93E091B304F091B404A7
:10104000309709F00995FF91EF91BF91AF919F9172
:101050008F917F916F915F914F913F912F910F9061
:101060000FBE0F901F9018951F920F920FB60F9200
:1010700011242F933F934F935F936F937F938F939D
:101080009F93AF93BF93EF93FF93E091B104F091DF
:10109000B204309709F00995FF91EF91BF91AF919C
:1010A0009F918F917F916F915F914F913F912F9180
:1010B0000F900FBE0F901F9018951F920F920FB6B2
:1010C0000F9211242F933F934F935F936F937F93CE
:1010D0008F939F93AF93BF93EF93FF93E091AF04F0
:1010E000F091B004309709F00995FF91EF91BF910D
:1010F000AF919F918F917F916F915F914F913F91B0
:101100002F910F900FBE0F901F9018951F920F9266
:101110000FB60F9211242F933F934F935F936F93CA
:101120007F938F939F93AF93BF93EF93FF93E09140
:10113000AD04F091AE04309709F00995FF91EF915D
:10114000BF91AF919F918F917F916F915F914F91DF
:101150003F912F910F900FBE0F901F9018951F92E7
:101160000F920FB60F9211242F933F934F935F93DB
:101170006F937F938F939F93AF93BF93EF93FF935F
:10118000E091AB04F091AC04309709F00995FF9120
:10119000EF91BF91AF919F918F917F916F915F91EF
:1011A0004F913F912F910F900FBE0F901F90189568
:1011B0001F920F920FB60F9211242F933F934F93CC
:1011C0005F936F937F938F939F93AF93BF93EF93AF
:1011D000FF93E091A904F091AA04309709F00995D2
:1011E000FF91EF91BF91AF919F918F917F916F91FF
:1011F0005F914F913F912F910F900FBE0F901F90D5
:1012000018951F920F920FB60F9211242F933F93B0
:101210004F935F936F937F938F939F93AF93BF93FE
:10122000EF93FF93E091A704F091A804309709F0A1
:101230000995FF91EF91BF91AF919F918F917F9110
:101240006F915F914F913F912F910F900FBE0F9033
:101250001F9018951F920F920FB60F9211242F9383
:101260003F934F935F936F937F938F939F93AF932E
:10127000BF93EF93FF93E091A504F091A6043097FC
:1012800009F00995FF91EF91BF91AF919F918F91D7
:101290007F916F915F914F913F912F910F900FBE72
:1012A0000F901F9018951F920F920FB60F92112456
:1012B0002F933F934F935F936F937F938F939F935E
:1012C000AF93BF93EF93FF93E091A304F091A40435
:1012D000309709F00995FF91EF91BF91AF919F91E0
:1012E0008F917F916F915F914F913F912F910F90CF
:1012F0000FBE0F901F9018951F920F920FB60F926E
:1013000011242F933F934F935F936F937F938F930A
:101310009F93AF93BF93EF93FF93E091A104F0915C
:10132000A204309709F00995FF91EF91BF91AF9119
:101330009F918F917F916F915F914F913F912F91ED
:101340000F900FBE0F901F9018951F920F920FB61F
:101350000F9211242F933F934F935F936F937F933B
:101360008F939F93AF93BF93EF93FF93E0919F046D
:10137000F091A004309709F00995FF91EF91BF918A
:10138000AF919F918F917F916F915F914F913F911D
:101390002F910F900FBE0F901F9018951F920F92D4
:1013A0000FB60F9211242F933F934F935F936F9338
:1013B0007F938F939F93AF93BF93EF93FF93E091AE
:1013C0009D04F0919E04309709F00995FF91EF91EB
:1013D000BF91AF919F918F917F916F915F914F914D
:1013E0003F912F910F900FBE0F901F90189587E897
:1013F00080937A0010927B0088E080937E0080ECDE
:1014000080937C000895109279001092780090915A
:101410007C00907F8F70982B90937C0080917A0055
:10142000806480937A0080917A0086FDFCCF809161
:101430007800909179000895FC0173836283718331
:1014400060830895CF93DF93EC01892BD1F0611570
:101450007105B9F0442391F0E881F981DB01415035
:10146000242F30E02F5F3F4F260F371F9D9192832F
:101470003396F983E883A217B307C1F7DF91CF91C1
:10148000089583EB93E0DF91CF910C9430070097A0
:1014900011F00C94670A85EC93E00C943007CF931D
:1014A000DC011296ED91FC911397C281892B41F0DA
:1014B00033961396FC93EE9312978C2FCF91089549
:1014C00086ED93E00E9430078C2FCF910895EF9224
:1014D000FF920F931F93CF93DF931F92CDB7DEB789
:1014E0008C01FC012081318182819381FE01319642
:1014F0007F012817390761F1C8010E944F0A8983CB
:1015000041E0B70184E091E00E94220AF8012081C5
:101510003181828193812817390771F7E0910601A3
:10152000F091070182818983C7010E94F2058091B1
:10153000060190910701039690930701809306019D
:101540000F90DF91CF911F910F91FF90EF90089531
:10155000CE0101967C01E2CF0895883050F1282F0A
:1015600030E08F3098F080916D002F50310941E0CC
:1015700050E001C0440F2A95EAF7842B80936D0058
:1015800080916800846080936800089580916C0069
:101590002850310941E050E001C0440F2A95EAF794
:1015A000842B80936C008091680082608093680037
:1015B000089590916B0021E030E001C0220F8A95E0
:1015C000EAF7892F822B80936B00809168008160FD
:1015D000809368000895CF93DF93CDB7DEB72B9744
:1015E0000FB6F894DEBF0FBECDBF80910801909179
:1015F00009010E942B0720E231EA47E050E060E059
:1016000074E284EF90E00E94510581E00E94F904A9
:101610006FE081E00E940D0460E082E00E940D0412
:1016200068E683E00E940D0421E030E040E054E2EF
:1016300064EF70E080E00E94FB0521E030E040E0D4
:1016400054E264EF70E081E00E94FB0521E030E0AD
:1016500040E054E264EF70E082E00E94FB050E94EB
:1016600007010E9449076CEE73E088EE93E00E9448
:101670001C0A85E00E94AD0A8CE00E94AD0A8DE054
:101680000E94AD0A0E94530081E090E090933F06D3
:1016900080933E068AE090E0909328068093270688
:1016A0008CE390E090935606809355068BE0EAE039
:1016B000F2E0DE01119601900D928A95E1F74BE080
:1016C000BE016F5F7F4F88EE93E00E94220A88EE92
:1016D00093E00E94470A0E94EB0486E396E00E9492
:1016E0000901809140068130B1F78FE196E00E94B8
:1016F000090180912906813059F08DE496E00E941D
:10170000090180915706813031F70E944007E3CFED
:101710000E947E00F2CFAA1BBB1B51E107C0AA1F8B
:10172000BB1FA617B70710F0A61BB70B881F991F82
:101730005A95A9F780959095BC01CD010895A1E235
:101740001A2EAA1BBB1BFD010DC0AA1FBB1FEE1F3B
:10175000FF1FA217B307E407F50720F0A21BB30B86
:10176000E40BF50B661F771F881F991F1A9469F702
:1017700060957095809590959B01AC01BD01CF015E
:101780000895EE0FFF1F0590F491E02D0994A29F9C
:10179000B001B39FC001A39F700D811D1124911D45
:1017A000B29F700D811D1124911D0895F894FFCFF3
:1017B0003C050032B704B7040100808386898C9011
:1017C0009396999C9FA2A5A8ABAEB1B3B6B9BCBF86
:1017D000C1C4C7C9CCCED1D3D5D8DADCDEE0E2E4CF
:1017E000E6E8EAEBEDEFF0F1F3F4F5F6F8F9FAFAE2
:1017F000FBFCFDFDFEFEFEFFFFFFFFFFFFFFFEFE09
:10180000FEFDFDFCFBFAFAF9F8F6F5F4F3F1F0EF62
:10181000EDEBEAE8E6E4E2E0DEDCDAD8D5D3D1CEDF
:10182000CCC9C7C4C1BFBCB9B6B3B1AEABA8A5A241
:101830009F9C999693908C898683807D7A7774702B
:101840006D6A6764615E5B5855524F4D4A4744412B
:101850003F3C393734322F2D2B28262422201E1CC2
:101860001A1816151311100F0D0C0B0A080706068F
:101870000504030302020201010101010101020248
:101880000203030405060607080A0B0C0D0F1011CE
:10189000131516181A1C1E20222426282B2D2F3231
:1018A0003437393C3F4144474A4D4F5255585B5EAF
:1018B0006164676A6D7074777A7D68616C6C6F685B
:1018C000616C6C6F004552524F5220706572696FA7
:1018D000645F636F6E74726F6C0074696D653A203B
:1018E00000636E743A200064696666200063757256
:1018F00020006C6173743220004552524F522067B1
:1019000070696F5F696E6974004552524F5220676B
:1019100070696F5F7772697465004552524F52204B
:101920006770696F5F72656164004552524F522063
:101930006770696F5F746F67676C6520706F727432
:101940002062004552524F52206770696F5F746F7A
:1019500067676C6520706F72742063004552524F48
:1019600052206770696F5F746F67676C6520706F76
:1019700072742064004552524F52206770696F5F45
:10198000746F67676C65004552524F5220776174DF
:101990006368646F6366675F70696E5F696E7075B8
:1019A000746974004552524F5220756172745F73AE
:1019B00074725F7472616E736D6974000A004552CF
:1019C000524F5220756172745F6E6D625F74726106
:1019D0006E736D6974004552524F52207561727476
:1019E0005F636E745F7472616E736D6974004552EB
:1019F000524F52207365745F74696D65725F6672D1
:101A0000657175656E6379004552524F5220746955
:101A10006D65725F7365745F636F6D706172650091
:101A2000416E204552524F5220686173206F6363AC
:101A30007572726564206174206C65617374206FC7
:101A40006E63652061742073746172742075700018
:101A50004552524F52206973725F726567697374A1
:101A60006572004552524F523A206669666F5F7741
:101A700072697465004552524F523A206669666F2A
:101A80005F73656E64004552524F523A2066696634
:081A90006F5F726561640000E4
:00000001FF
